:04000000020069325F
:01000B0032C2
:0100130032BA
:01001B0032B2
:0100230032AA
:01002B0032A2
:01003300329A
:01003B003292
:01004300328A
:01004B003282
:01005300327A
:03005B00020BDCB9
:03006300020BDDB0
:0600C200C200D201C202DF
:0300CC00020066C9
:030066000200CFC6
:2000CF001214FC90807B7404F0758202121453D20675820312148E120605120B3D43A88022
:2000EF00120BD5AF82BF02F8C20675820312148E120BD5AF82BF03F890C7C774FFF090C7EA
:20010F00C6E0FF30E10302027930000302027990C7B67402F090C7C7E0FF908043F0C37400
:20012F00A08FF063F08095F050069080437420F0908043E0FFFD3395E0FE9080857440F0FE
:20014F0074C6A3F0E4A3F0908088EDF0EEA3F090800075F000C00712153AD00720010302BC
:20016F00024F908058EFF09080597421F07480A3F090805B7444F07480A3F0E4A3F0908042
:20018F000012087DAE8290807E7402F0E4A3F0C206758203C00612148ED006EE600ED206D8
:2001AF00758202C00612148ED006800CD206758201C00612148ED00690C7C77401F0EE606A
:2001CF00047D0180027D00908045EDF0ED602BC006C005120B2AE582D005D006600790808A
:2001EF004574024DF0C006120B30AD82D006EDC454F0FD908045E0FC4DF0908045E0FD90BE
:20020F00C680F0EE20E505908044E4F0908044E0FE3395E0FD9080857421F07480A3F0E41D
:20022F00A3F0908088EEF0EDA3F090C68175F00012153A908044E0FE0E90C7B7EEF0802AB3
:20024F00908060EFF090800012092490807E7402F0E4A3F0C20675820312148ED206758241
:20026F000212148E90C7C77401F0121438400302010D12028702010D121441AE82AF83C051
:20028F0007C006120BD5AD82D006D007BD030050030205DC8E828F83A3E0FDBDFF06121434
:2002AF00450205DFBD01128E828F83A3A3E0FBA3E08B82120A00021445BD03128E828F83F6
:2002CF00A3A3E0FBA3E08B82120A2E021445BD023074062EF582E43FF583E0FBA3E0FCBBFB
:2002EF000505BC0002800302144C90C7C57401F090C7B4E0FC20E3F890C6C0120A96021401
:20030F0045BD04128E828F83A3A3E0FBA3E08B82120A4E021445BD05128E828F83A3A3E002
:20032F00FBA3E08B82120A61021445BD06128E828F83A3A3E0FBA3E08B82120A6F021445BD
:20034F00BD204A74022EFBE43FFC8B828C83E0F9A3E04924FF9203C004C003120A7DD0033D
:20036F00D0048B828C83E0F9A3E04924FF920090807E74FFF0A3F08B828C83E0FBA3E04BDB
:20038F0024FF920675820112148E021445BD10128E828F83A3A3E0FBA3E04B24FF920102E4
:2003AF001445E4BD210104FD700302059C8E828F83E0FCBC4002800302059C90804974010B
:2003CF00F0908042E4F074062EFBE43FFC8B828C83E0F9A3E0FAC3E99401EA9400500302B0
:2003EF00144C8E828F83A3A3E0F9A3E08E828F83A3A3A3A3E0F8A3E0FAC3747D98E49A50AD
:20040F000875107D751100800488108A11AA10C004C003C002C001120A47A882D001D00292
:20042F00D003D004B802069080497402F090C7C57401F090C7B4E0F820E3F8C0028B828CCD
:20044F0083E0F8A3E0FA90808574C0F074C6A3F0E4A3F0908088E8F0EAA3F090800075F056
:20046F0000C004C003C002C00112153AD001D002D003D004908046E9F0E4A3F0908049E0D9
:20048F00F510D0028A00790008B8000109908046E0F512A3E0F513C3E51298E5136480892A
:2004AF00F063F08095F04003020599908042E0F9C3648094BF4003020599A9128982C00470
:2004CF00C003C002120A00D002D003D0048B828C83E0F8A3E0908058E8F09080597421F04E
:2004EF007480A3F090805B7448F07480A3F0E4A3F0908000C004C003C00212087DA982D066
:20050F0002D003D004E96010908042E0F804F088827583C7E512F8F090807E7402F0E4A389
:20052F00F0C206758203C004C003C002C00112148ED001D002D003D004E96016D2067582C4
:20054F0002C004C003C00212148ED002D003D0048014D206758201C004C003C00212148EB3
:20056F00D002D003D004C002E510F5123395E0F513908046E0F9A3E0FA908046E51229F073
:20058F00E5133AA3F0D002020493021445ED603D8E828F83E0FDBDC03474062EF582E43F45
:2005AF00F583E0FEA3E0FF908042E0FC3395E0FDC3EC9EED9F500280048E048F0590C7B5A0
:1C05CF00ECF090C7B4E0FF20E2F802144502144C75A800120BC6120642027800BF
:2005EB00E58290804AF0E0F5E5C2C010C00280FB85E582227582000205EB75900675E61049
:20060B0090804C747EF07582001206A37EE87F031EBEFF011FEE4F70F790804C7406F0751D
:20062B00821D1206A390804C7401F075821C1206A31209CE02094F90804CE4F0758200124A
:20064B0006A375900075E60022C2917582FF1205EBAF82D2918F8222C2917582E11205EB25
:20066B00AF82D2918F8222C2917582E21205EBAF82D2918F8222E58290804BF0C29190809E
:20068B004BE0FF53071F8F821205EB7582A51205EBAF82D2918F8222E58290804DF0C2912D
:2006AB0090804DE0FF741F5F4420F5821205EB90804CE0FFF582C0071205EBD007D2918FE0
:2006CB008222AF83E58290804FF0EFA3F0C2917582A01205EB90804FE0FEA3E0FF90804EF8
:2006EB00E0FD7B007C00EDF93395E0FAC3EB99EC64808AF063F08095F05029EB2EF582ECB5
:20070B003FF583E0F582C007C006C005C004C0031205EBD003D004D005D006D0070BBB00F6
:20072B00C50C80C2D291D2907E327F008E048F051EBEFF011FEC4D70F3C29022AF83E582DD
:20074B00908052F0EFA3F0C2917582D01205EB908052E0FEA3E0FF908051E0FD7B007C00A7
:20076B00EDF93395E0FAC3EB99EC64808AF063F08095F05029EB2EF582EC3FF583E0F582FA
:20078B00C007C006C005C004C0031205EBD003D004D005D006D0070BBB00C50C80C2D2910E
:2007AB00D2907E327F008E048F051EBEFF011FEC4D70F3C29022AF83E582908054F0EFA3ED
:2007CB00F0C2917582601205EB1205FFE582FE3395E0FF908056EEF0EFA3F0D291C3E49EE2
:2007EB0074808FF063F08095F05076C3EE9421EF64809480506BC291758261C007C006120B
:20080B0005EBD006D007908054E0FCA3E0FD7A007B00C3EA9EEB64808FF063F08095F0503A
:20082B003CC006C007EA2CF8EB3DF9C006C005C004C003C002C001C0001205FFAF82D00049
:20084B00D001D002D003D004D005D00688828983EFF00ABA00010BD007D00680B5D291800E
:20086B0007908056E4F0A3F0908056E0FEA3E08E8222AF83E58290805EF0EFA3F090805EB9
:20088B00E0FEA3E0FF908058E090804EF08E828F831206CD120654AF828F06EE547060F418
:2008AB0090804C7470F0758207C0071206A3D007EF30E40712066375820022EF30E638903B
:2008CB00805BE0FCA3E0FDA3E0FE908059E0FAA3E0FB8A828B83C007C006C005C00412074B
:2008EB00C1AB82D004D005D006D0078C828D838EF0EB1215AE801590805BE0FCA3E0FDA34E
:20090B00E0FE8C828D838EF0E41215AEC007120672D0075307208F8222AF83E582908061BA
:20092B00F0EFA3F0120654E582FF20E0F7908061E0FEA3E0FF908060E0908051F08E828F60
:20094B0083020747908091E0FF30E74E8F0653067FEE24DF50047E208004747F5FFE7D0033
:20096B0090808EE0FCC2D575F006EC30E704B2D5F404A430D50AF42401C5F0F43400C5F00C
:20098B0024E9FB741535F0FCED2BF582E43CF583E493FCC39E500C0D80C6908063740F5F9B
:2009AB00F08005908063EDF0908063E0C454F0FF908090E0FE740F5E90804C4FF075820418
:2009CB000206A390808EE09015FB93FF90808FE025E0FE4207908064EFF0908092E06007AA
:2009EB0090806474904FF0908064E090804CF07582060206A3E582908065F0E0FF20E70C2F
:200A0B00C374FD8FF063F08095F0500122C29090804CEFF07582051206A3908092E0600225
:200A2B00D29022E582908066F0E0FFBF030040012290808EEFF01209CE02094F90808EE018
:200A4B00F58222E582908067F0E0FF53070390808FEFF00209CEE582908068F0E090809141
:200A6B00F002094FE582908069F0E0908090F002094F3003047F0180027F00908092EFF04E
:200A8B00C2901209CE300302D29022AF83E58290806AF0EFA3F0C2917582301205EB908046
:200AAB006AE0FEA3E0FF7C007D00EC2EF582ED3FF583E0F582C007C006C005C0041205EBC4
:200ACB00D004D005D006D0070CBC00010DC3EC9405ED6480948040D2D291C29175822AC009
:200AEB0007C0061205EBD006D0077C007D00EC2EF582ED3FF583E0F582C007C006C005C0D8
:200B0B00041205EBD004D005D006D0070CBC00010DC3EC9405ED6480948040D2D29122755F
:120B2B008209020681758208120681E582540FF58222A9
:1515E9000000081018200F200000000005200000000020000821
:05169B00020303A000A2
:0400C800C204C205A7
:200B3D00908093E4F075A04090C7D6E04404F07C507DC37E007F001CBCFF091DBDFF051EA2
:200B5D00BEFF011FEC4D4E4F70ED90C7D6E054FBF090C7DEE4F090C7ACF090C7DFF090C7A3
:200B7D00ADF090C7E0F090C700F090C7AE7418F090C7A974FFF090C7AAF090C7ABF090C72F
:200B9D00817420F090C78223F090C7837460F090C7887440F090C78903F090C78A23F090CF
:200BBD00C78B7460F043B81822908093E4F0AFB874E75FF5B8D2A522908093E0F5822232A1
:200BDD00C021C0E0C0F0C082C083C007C006C005C004C003C002C001C000C0D075D00890B9
:200BFD00C7A8E0FF6063BF0403020CB7BF0803020D03BF0C03020D0CBF1003020D15BF18AA
:200C1D0003020D40BF1C03020D54BF2003020D68BF2403020D70BF2803020D78BF2C030205
:200C3D000D80BF3003020D88BF3403020D90BF3803020D98BF3C03020DA0BF4003020DA8E5
:200C5D00BF4403020DB0020DB690C7E8E0FF54606002800B75D000120ED675D00880329064
:200C7D00C7E8E0FF530F60BF400B75D00012136475D008801C90C7E8E0FF530F60BF200B7C
:200C9D0075D00012136775D008800690C7B47401F090C7AB7401F0020DB690807EE0FEA3E8
:200CBD00E0FF20E7388E0C8F0D1EBEFF011F90807EEEF0EFA3F0EC4D7023C20675820175D9
:200CDD00D00012148E75D008C20675820275D00012148E75D00890807EE4F0A3F090C7AB28
:200CFD007402F0020DB690C7AB7404F0020DB690C7AB7408F0020DB69080937401F090C7EB
:200D1D00DEF090C7DFF090C7C5F090C7ACF090C7ADF090C7AEE04405FFF090C7AB7410F03C
:200D3D00020DB675820075D000120DD475D00890C7A97401F0806275820075D000120DD3E0
:200D5D0075D00890C7AA7401F0804E90C7A97402F0804690C7AA7402F0803E90C7A974042C
:200D7D00F0803690C7AA7404F0802E90C7A97408F0802690C7AA7408F0801E90C7A97410F8
:200D9D00F0801690C7AA7410F0800E90C7A97420F0800690C7AA7420F0D0D0D000D001D00D
:200DBD0002D003D004D005D006D007D083D082D0F0D0E0D0213222E582908074F0E0FFC215
:200DDD00D575F007EF30E704B2D5F404A430D50AF42401C5F0F43400C5F0246DFD74803517
:200DFD00F0FE74012DFBE43EFC8B828C83E0F9A3E0FAC3E99440EA6480948050028004790A
:200E1D00407A008D828E83E07003020ED58D828E83A3A3A3A3A3E0F8A3E0FA74032DF51452
:200E3D00E43EF515C005C006851482851583E0FDA3E0FEED28F8EE3AFA908075E8F0EAA32F
:200E5D00F07480A3F0908078E9F08F82C006C005C004C003C00112136ED001D003D004D0DE
:200E7D0005D0068B828C83E0FEA3E0FF89027D00EEC39AFEEF9DFF8B828C83EEF0EFA3F0A6
:200E9D00851482851583E0FBA3E0FCEA2BFAED3CFD851482851583EAF0EDA3F0EE4FD006C9
:200EBD00D0057014B94002800F8D828E83E4F0851482851583F0A3F022908093E0FFBF011F
:200EDD000050030210D690C7E9E0FEBE06028003020F6890C7EBE0FEBE017090C7EFE0FD68
:200EFD007E0090C7EEE07B002EFEEB3DFD908072740EF07416A3F08E038D04908072E0F5DC
:200F1D0016A3E0F51790160EE493F83395E0FAC3EB98EC64808AF063F08095F0400E851679
:200F3D0082851783E493FCFE3395E0FD90806EEEF0EDA3F0908070E4F0A3F090806D04F0A9
:200F5D0090C7B404F0758200020DD490C7E9E0FEBE0602800302103490C7EBE0FEBE03020B
:200F7D00800302103490C7EFE0FD7E0090C7EEE0FC7B002EFEEB3DFD90C7EAE0700C908050
:200F9D00727459F07416A3F0804190C7EAE0FCBC010C908072745DF07416A3F0802D90C7DD
:200FBD00EAE0FCBC020C908072746FF07416A3F0801990C7EAE0FCBC1D0A1213A790C7B4A2
:200FDD007402F02290C7B47401F0228E038D04908072E0F9A3E0FA89828A83E493FAF8332C
:200FFD0095E0F9C3EB98EC648089F063F08095F04006EAFE3395E0FD90806EEEF0EDA3F0D0
:20101D00908070E4F0A3F090806D04F090C7B404F0758200020DD490C7E9E0FEBE065690BA
:20103D00C7EBE0FEBE024E90C7EFE0FD7E0090C7EEE07B002EFEEB3DFD9080727420F074E9
:20105D0016A3F08E038D04C3EB9439EC6480948040047E397D0090806EEEF0EDA3F09080E5
:20107D0070E4F0A3F090806D04F090C7B404F0758200020DD490C7E9E0FEBE053C90C7EAD4
:20109D00E0FDA3E0FE4D70249080937401F090C7DEF090C7DFF090C7C5F090C7ACF090C74B
:2010BD00ADF090C7AEE04405FEF080069080937402F090C7B47402F022BF02005003021210
:2010DD002A90C7E9E0FEBE096190C7EAE0FDA3E0FE4D70259080937402F090C7DEE054F997
:2010FD00F090C7DFE054FDF090C7ADE054FDF090C7ACE054FDFEF0802A9080937403F09001
:20111D00C7DEE04406F090C7DFE04402F090C7ADE04402F090C7ACE04402F090C7AEE0444B
:20113D0002FEF090C7B47402F02290C7E9E0FEBE081CBF030890C7007401F0800590C700AD
:20115D00E4F090C7B57401F090C7B404F02290C7E9E0600302122A90C7E8E0FE530607BE10
:20117D000202800302121690C7ECE06008BF0302800302122A90C7ECE0FDA3E0FEBD810EA4
:20119D00BE000B90C7B6E0FC90C700F0805BBD820EBE000B90C7B8E0FC90C700F0804ABD8F
:2011BD00830EBE000B90C7BAE0FC90C700F08039BD010EBE000B90C7C6E0FC90C700F08076
:2011DD0028BD020EBE000B90C7C8E0FC90C700F08017BD030EBE000B90C7CAE0FE90C7006E
:2011FD00F0800690C7007401F090C701E4F090C7B57402F090C7B4F02290C700E4F090C763
:20121D0001F090C7B57402F090C7B4F022BF0300500302135D90C7E9E0FFBF0A1290C70059
:20123D00E4F090C7B504F090C7B4E04402F02290C7E9E0FFBF010280030212D490C7E8E00F
:20125D00FE530603BE027090C7EAE0FDA3E0FE4D706590C7ECE0FDA3E0FEBD810ABE000778
:20127D0090C7B6E4F08048BD820ABE000790C7B8E4F0803BBD830ABE000790C7BAE4F08088
:20129D002EBD010ABE000790C7C6E4F08021BD020ABE000790C7C8E4F08014BD030ABE0047
:2012BD000790C7CAE4F0800790C7B47401F02290C7B4E04402F022BF0302800302135D9070
:2012DD00C7E8E0FF530703BF027690C7EAE0FEA3E0FF4E706B90C7ECE0FEA3E0FFBE810B18
:2012FD00BF000890C7B67401F0804DBE820BBF000890C7B87401F0803FBE830BBF000890E3
:20131D00C7BA7401F08031BE010BBF000890C7C67401F08023BE020BBF000890C7C874013D
:20133D00F08015BE030BBF000890C7CA7401F0800790C7B47401F02290C7B4E04402F02296
:20135D0090C7B47401F022D2052290C7B47401F022908075E0FDA3E0FEA3E0FF908078E086
:20137D00FCFA7B00908085EDF0EEA3F0EFA3F0908088EAF0EBA3F090C70075F000C00412E8
:20139D00153AD00490C7B5ECF02290C7007416F090C7017403F07E007F008E05ED2D25E0C4
:2013BD00FD24022400FBE434C7FCEE2480F9EF3480FA89828A83E0C4540FF8740F58901534
:2013DD00FE93F88B828C83F074032D2400F582E434C7F583E4F074042D2400FBE434C7FC52
:2013FD0089828A83E0F9740F599015FE93FA8B828C83F074052D2400F582E434C7F583E44B
:20141D00F00EBE00010FC3EE9405EF6480948050030213B790C7B57416F022100502800252
:16143D00D322C32290C7E82290C7B47402F02290C7B47401F02239
:1015FE00303132333435363738394142434445463B
:0316A00000FFFF49
:20160E00120100020000004015197777539901021D01090220000101008032090400000250
:20162E00FFFF00000705810240000607050102400006000000000000000000000000000074
:20164E0000000000000000000000000403090412034200690074006300720061007A00651F
:20166E00002C034300720061007A00790072006100640069006F00200055005300420020EB
:0D168E000044006F006E0067006C006500F6
:20145300E58290807CF0E0FF908079F090807BE0FE90807AF08FF005F07401800225E0D516
:20147300F0FBFF8EF005F07401800225E0D5F0FB4207EFF4FF5294EF528022E58290807D58
:20149300F0E0FF30E030300617908079E0FE8EF005F07401800225E0D5F0FBFE42808016F1
:2014B300908079E0FE8EF005F07401800225E0D5F0FBF4FE5280EF30E12E30061590807ABC
:2014D300E0FF8FF005F07401800225E0D5F0FB42802290807AE0FF8FF005F074018002250D
:0914F300E0D5F0FBF4FF52802269
:2014FC0043F8087E007F00EE2480FCEF3480FD908096E0FAA3E0FBEE2AF582EF3BF583E053
:1E151C00FB8C828D83F00EBE00010FC3EE9405EF6480948040D1AFF874F75FF5F8220A
:0216A3000B003A
:06009800E478FFF6D8FD3C
:20153A00AFF0AE83E58290808AF0EEA3F0EFA3F090808AE0F518A3E0F519A3E0F51AAA1861
:20155A00AB19AC1A908085E0F8A3E0F9A3E0FF908088E0F51BA3E0F51CAD1BAE1C151B742A
:20157A00FFB51B02151CED4E6020888289838FF01215C9FEA3A882A9838A828B838CF0EE94
:14159A001215AEA3AA82AB8380CF851882851983851AF0222B
:20007600790AE94400601B7A0190169B788E75A080E493F2A308B8000205A0D9F4DAF27567
:02009600A0FFC9
:1B15AE0020F71130F6138883A88220F509F6A8837583002280FEF280F5F0223C
:20009E007800E84400600A790075A080E4F309D8FC788EE84400600C7901908000E4F0A3D3
:0400BE00D8FCD9FA97
:0D0069007581211215E5E582600302006635
:1C15C90020F71430F6148883A88220F507E6A88375830022E280F7E49322E02231
:0415E50075820022E9
:00000001FF
