:04000000020069325F
:01000B0032C2
:0100130032BA
:01001B0032B2
:0100230032AA
:01002B0032A2
:01003300329A
:01003B003292
:01004300328A
:01004B003282
:01005300327A
:03005B00020BDABB
:03006300020BDBB2
:0400C200C200D201A5
:0300CA00020066CB
:030066000200CDC8
:2000CD001214FA90807B7404F0758202121451D20575820312148C120603120B3B43A8802F
:2000ED00120BD3AF82BF02F8C20575820312148C120BD3AF82BF03F890C7C774FFF090C7F3
:20010D00C6E0FF30E10302027730000302027790C7B67402F090C7C7E0FF908043F0C37406
:20012D00A08FF063F08095F050069080437420F0908043E0FFFD3395E0FE9080857440F000
:20014D0074C6A3F0E4A3F0908088EDF0EEA3F090800075F000C007121538D00720010302C0
:20016D00024D908058EFF09080597421F07480A3F090805B7444F07480A3F0E4A3F0908046
:20018D000012087BAE8290807E7402F0E4A3F0C205758203C00612148CD006EE600ED205E0
:2001AD00758202C00612148CD006800CD205758201C00612148CD00690C7C77401F0EE6071
:2001CD00047D0180027D00908045EDF0ED602BC006C005120B28E582D005D006600790808E
:2001ED004574024DF0C006120B2EAD82D006EDC454F0FD908045E0FC4DF0908045E0FD90C2
:20020D00C680F0EE20E505908044E4F0908044E0FE3395E0FD9080857421F07480A3F0E41F
:20022D00A3F0908088EEF0EDA3F090C68175F000121538908044E0FE0E90C7B7EEF0802AB7
:20024D00908060EFF090800012092290807E7402F0E4A3F0C20575820312148CD205758249
:20026D000212148C90C7C77401F0121436400302010B12028502010B12143FAE82AF83C05F
:20028D0007C006120BD3AD82D006D007BD030050030205DA8E828F83A3E0FDBDFF0612143A
:2002AD00430205DDBD01128E828F83A3A3E0FBA3E08B821209FE021443BD03128E828F8301
:2002CD00A3A3E0FBA3E08B82120A2C021443BD023074062EF582E43FF583E0FBA3E0FCBB01
:2002ED000505BC0002800302144A90C7C57401F090C7B4E0FC20E3F890C6C0120A94021407
:20030D0043BD04128E828F83A3A3E0FBA3E08B82120A4C021443BD05128E828F83A3A3E00A
:20032D00FBA3E08B82120A5F021443BD06128E828F83A3A3E0FBA3E08B82120A6D021443C7
:20034D00BD204A74022EFBE43FFC8B828C83E0F9A3E04924FF9202C004C003120A7BD00342
:20036D00D0048B828C83E0F9A3E04924FF920090807E74FFF0A3F08B828C83E0FBA3E04BDD
:20038D0024FF920575820112148C021443BD10128E828F83A3A3E0FBA3E04B24FF920102EB
:2003AD001443E4BD210104FD700302059A8E828F83E0FCBC4002800302059A908049740113
:2003CD00F0908042E4F074062EFBE43FFC8B828C83E0F9A3E0FAC3E99401EA9400500302B2
:2003ED00144A8E828F83A3A3E0F9A3E08E828F83A3A3A3A3E0F8A3E0FAC3747D98E49A50B1
:20040D000875107D751100800488108A11AA10C004C003C002C001120A45A882D001D00296
:20042D00D003D004B802069080497402F090C7C57401F090C7B4E0F820E3F8C0028B828CCF
:20044D0083E0F8A3E0FA90808574C0F074C6A3F0E4A3F0908088E8F0EAA3F090800075F058
:20046D0000C004C003C002C001121538D001D002D003D004908046E9F0E4A3F0908049E0DD
:20048D00F510D0028A00790008B8000109908046E0F512A3E0F513C3E51298E5136480892C
:2004AD00F063F08095F04003020597908042E0F9C3648094BF4003020597A9128982C00476
:2004CD00C003C0021209FED002D003D0048B828C83E0F8A3E0908058E8F09080597421F053
:2004ED007480A3F090805B7448F07480A3F0E4A3F0908000C004C003C00212087BA982D06A
:20050D0002D003D004E96010908042E0F804F088827583C7E512F8F090807E7402F0E4A38B
:20052D00F0C205758203C004C003C002C00112148CD001D002D003D004E96016D2057582CA
:20054D0002C004C003C00212148CD002D003D0048014D205758201C004C003C00212148CBA
:20056D00D002D003D004C002E510F5123395E0F513908046E0F9A3E0FA908046E51229F075
:20058D00E5133AA3F0D002020491021443ED603D8E828F83E0FDBDC03474062EF582E43F4B
:2005AD00F583E0FEA3E0FF908042E0FC3395E0FDC3EC9EED9F500280048E048F0590C7B5A2
:1C05CD00ECF090C7B4E0FF20E2F802144302144A75A800120BC4120640027800C9
:2005E900E58290804AF0E0F5E5C2C010C00280FB85E582227582000205E975900675E6104D
:2006090090804C747EF07582001206A17EE87F031EBEFF011FEE4F70F790804C7406F07521
:20062900821D1206A190804C7401F075821C1206A11209CC02094D90804CE4F07582001254
:2006490006A175900075E60022C2917582FF1205E9AF82D2918F8222C2917582E11205E92D
:20066900AF82D2918F8222C2917582E21205E9AF82D2918F8222E58290804BF0C2919080A2
:200689004BE0FF53071F8F821205E97582A51205E9AF82D2918F8222E58290804DF0C29133
:2006A90090804DE0FF741F5F4420F5821205E990804CE0FFF582C0071205E9D007D2918FE6
:2006C9008222AF83E58290804FF0EFA3F0C2917582A01205E990804FE0FEA3E0FF90804EFC
:2006E900E0FD7B007C00EDF93395E0FAC3EB99EC64808AF063F08095F05029EB2EF582ECB7
:200709003FF583E0F582C007C006C005C004C0031205E9D003D004D005D006D0070BBB00FA
:20072900C50C80C2D291D2907E327F008E048F051EBEFF011FEC4D70F3C29022AF83E582DF
:20074900908052F0EFA3F0C2917582D01205E9908052E0FEA3E0FF908051E0FD7B007C00AB
:20076900EDF93395E0FAC3EB99EC64808AF063F08095F05029EB2EF582EC3FF583E0F582FC
:20078900C007C006C005C004C0031205E9D003D004D005D006D0070BBB00C50C80C2D29112
:2007A900D2907E327F008E048F051EBEFF011FEC4D70F3C29022AF83E582908054F0EFA3EF
:2007C900F0C2917582601205E91205FDE582FE3395E0FF908056EEF0EFA3F0D291C3E49EE8
:2007E90074808FF063F08095F05076C3EE9421EF64809480506BC291758261C007C006120D
:2008090005E9D006D007908054E0FCA3E0FD7A007B00C3EA9EEB64808FF063F08095F0503E
:200829003CC006C007EA2CF8EB3DF9C006C005C004C003C002C001C0001205FDAF82D0004D
:20084900D001D002D003D004D005D00688828983EFF00ABA00010BD007D00680B5D2918010
:2008690007908056E4F0A3F0908056E0FEA3E08E8222AF83E58290805EF0EFA3F090805EBB
:20088900E0FEA3E0FF908058E090804EF08E828F831206CB120652AF828F06EE547060F41E
:2008A90090804C7470F0758207C0071206A1D007EF30E40712066175820022EF30E6389041
:2008C900805BE0FCA3E0FDA3E0FE908059E0FAA3E0FB8A828B83C007C006C005C00412074D
:2008E900BFAB82D004D005D006D0078C828D838EF0EB1215AC801590805BE0FCA3E0FDA354
:20090900E0FE8C828D838EF0E41215ACC007120670D0075307208F8222AF83E582908061C0
:20092900F0EFA3F0120652E582FF20E0F7908061E0FEA3E0FF908060E0908051F08E828F64
:2009490083020745908091E0FF30E74E8F0653067FEE24DF50047E208004747F5FFE7D0037
:2009690090808EE0FCC2D575F006EC30E704B2D5F404A430D50AF42401C5F0F43400C5F00E
:2009890024E7FB741535F0FCED2BF582E43CF583E493FCC39E500C0D80C6908063740F5F9F
:2009A900F08005908063EDF0908063E0C454F0FF908090E0FE740F5E90804C4FF07582041A
:2009C9000206A190808EE09015F993FF90808FE025E0FE4207908064EFF0908092E06007B0
:2009E90090806474904FF0908064E090804CF07582060206A1E582908065F0E0FF20E70C33
:200A0900C374FD8FF063F08095F0500122C29090804CEFF07582051206A1908092E0600229
:200A2900D29022E582908066F0E0FFBF030040012290808EEFF01209CC02094D90808EE01E
:200A4900F58222E582908067F0E0FF53070390808FEFF00209CCE582908068F0E090809145
:200A6900F002094DE582908069F0E0908090F002094D3002047F0180027F00908092EFF055
:200A8900C2901209CC300202D29022AF83E58290806AF0EFA3F0C2917582301205E990804D
:200AA9006AE0FEA3E0FF7C007D00EC2EF582ED3FF583E0F582C007C006C005C0041205E9C8
:200AC900D004D005D006D0070CBC00010DC3EC9405ED6480948040D2D291C29175822AC00B
:200AE90007C0061205E9D006D0077C007D00EC2EF582ED3FF583E0F582C007C006C005C0DC
:200B0900041205E9D004D005D006D0070CBC00010DC3EC9405ED6480948040D2D291227563
:120B2900820902067F75820812067FE582540FF58222AF
:1515E7000000081018200F200000000005200000000020000823
:05169900020303A000A4
:0400C600C203C204AB
:200B3B00908093E4F075A04090C7D6E04404F07C507DC37E007F001CBCFF091DBDFF051EA4
:200B5B00BEFF011FEC4D4E4F70ED90C7D6E054FBF090C7DEE4F090C7ACF090C7DFF090C7A5
:200B7B00ADF090C7E0F090C700F090C7AE7418F090C7A974FFF090C7AAF090C7ABF090C731
:200B9B00817420F090C78223F090C7837460F090C7887440F090C78903F090C78A23F090D1
:200BBB00C78B7460F043B81822908093E4F0AFB874E75FF5B8D2A522908093E0F5822232A3
:200BDB00C021C0E0C0F0C082C083C007C006C005C004C003C002C001C000C0D075D00890BB
:200BFB00C7A8E0FF6063BF0403020CB5BF0803020D01BF0C03020D0ABF1003020D13BF18B4
:200C1B0003020D3EBF1C03020D52BF2003020D66BF2403020D6EBF2803020D76BF2C030211
:200C3B000D7EBF3003020D86BF3403020D8EBF3803020D96BF3C03020D9EBF4003020DA6F3
:200C5B00BF4403020DAE020DB490C7E8E0FF54606002800B75D000120ED475D0088032906C
:200C7B00C7E8E0FF530F60BF400B75D00012136275D008801C90C7E8E0FF530F60BF200B80
:200C9B0075D00012136575D008800690C7B47401F090C7AB7401F0020DB490807EE0FEA3EE
:200CBB00E0FF20E7388E0C8F0D1EBEFF011F90807EEEF0EFA3F0EC4D7023C20575820175DC
:200CDB00D00012148C75D008C20575820275D00012148C75D00890807EE4F0A3F090C7AB2F
:200CFB007402F0020DB490C7AB7404F0020DB490C7AB7408F0020DB49080937401F090C7F3
:200D1B00DEF090C7DFF090C7C5F090C7ACF090C7ADF090C7AEE04405FFF090C7AB7410F03E
:200D3B00020DB475820075D000120DD275D00890C7A97401F0806275820075D000120DD1E8
:200D5B0075D00890C7AA7401F0804E90C7A97402F0804690C7AA7402F0803E90C7A974042E
:200D7B00F0803690C7AA7404F0802E90C7A97408F0802690C7AA7408F0801E90C7A97410FA
:200D9B00F0801690C7AA7410F0800E90C7A97420F0800690C7AA7420F0D0D0D000D001D00F
:200DBB0002D003D004D005D006D007D083D082D0F0D0E0D0213222E582908074F0E0FFC217
:200DDB00D575F007EF30E704B2D5F404A430D50AF42401C5F0F43400C5F0246DFD74803519
:200DFB00F0FE74012DFBE43EFC8B828C83E0F9A3E0FAC3E99440EA6480948050028004790C
:200E1B00407A008D828E83E07003020ED38D828E83A3A3A3A3A3E0F8A3E0FA74032DF51456
:200E3B00E43EF515C005C006851482851583E0FDA3E0FEED28F8EE3AFA908075E8F0EAA331
:200E5B00F07480A3F0908078E9F08F82C006C005C004C003C00112136CD001D003D004D0E2
:200E7B0005D0068B828C83E0FEA3E0FF89027D00EEC39AFEEF9DFF8B828C83EEF0EFA3F0A8
:200E9B00851482851583E0FBA3E0FCEA2BFAED3CFD851482851583EAF0EDA3F0EE4FD006CB
:200EBB00D0057014B94002800F8D828E83E4F0851482851583F0A3F022908093E0FFBF0121
:200EDB000050030210D490C7E9E0FEBE06028003020F6690C7EBE0FEBE017090C7EFE0FD6E
:200EFB007E0090C7EEE07B002EFEEB3DFD908072740CF07416A3F08E038D04908072E0F5E0
:200F1B0016A3E0F51790160CE493F83395E0FAC3EB98EC64808AF063F08095F0400E85167D
:200F3B0082851783E493FCFE3395E0FD90806EEEF0EDA3F0908070E4F0A3F090806D04F0AB
:200F5B0090C7B404F0758200020DD290C7E9E0FEBE0602800302103290C7EBE0FEBE030211
:200F7B00800302103290C7EFE0FD7E0090C7EEE0FC7B002EFEEB3DFD90C7EAE0700C908054
:200F9B00727457F07416A3F0804190C7EAE0FCBC010C908072745BF07416A3F0802D90C7E3
:200FBB00EAE0FCBC020C908072746DF07416A3F0801990C7EAE0FCBC1D0A1213A590C7B4A8
:200FDB007402F02290C7B47401F0228E038D04908072E0F9A3E0FA89828A83E493FAF8332E
:200FFB0095E0F9C3EB98EC648089F063F08095F04006EAFE3395E0FD90806EEEF0EDA3F0D2
:20101B00908070E4F0A3F090806D04F090C7B404F0758200020DD290C7E9E0FEBE065690BE
:20103B00C7EBE0FEBE024E90C7EFE0FD7E0090C7EEE07B002EFEEB3DFD908072741EF074ED
:20105B0016A3F08E038D04C3EB9439EC6480948040047E397D0090806EEEF0EDA3F09080E7
:20107B0070E4F0A3F090806D04F090C7B404F0758200020DD290C7E9E0FEBE053C90C7EAD8
:20109B00E0FDA3E0FE4D70249080937401F090C7DEF090C7DFF090C7C5F090C7ACF090C74D
:2010BB00ADF090C7AEE04405FEF080069080937402F090C7B47402F022BF02005003021212
:2010DB002890C7E9E0FEBE096190C7EAE0FDA3E0FE4D70259080937402F090C7DEE054F99B
:2010FB00F090C7DFE054FDF090C7ADE054FDF090C7ACE054FDFEF0802A9080937403F09003
:20111B00C7DEE04406F090C7DFE04402F090C7ADE04402F090C7ACE04402F090C7AEE0444D
:20113B0002FEF090C7B47402F02290C7E9E0FEBE081CBF030890C7007401F0800590C700AF
:20115B00E4F090C7B57401F090C7B404F02290C7E9E0600302122890C7E8E0FE530607BE14
:20117B000202800302121490C7ECE06008BF0302800302122890C7ECE0FDA3E0FEBD810EAA
:20119B00BE000B90C7B6E0FC90C700F0805BBD820EBE000B90C7B8E0FC90C700F0804ABD91
:2011BB00830EBE000B90C7BAE0FC90C700F08039BD010EBE000B90C7C6E0FC90C700F08078
:2011DB0028BD020EBE000B90C7C8E0FC90C700F08017BD030EBE000B90C7CAE0FE90C70070
:2011FB00F0800690C7007401F090C701E4F090C7B57402F090C7B4F02290C700E4F090C765
:20121B0001F090C7B57402F090C7B4F022BF0300500302135B90C7E9E0FFBF0A1290C7005D
:20123B00E4F090C7B504F090C7B4E04402F02290C7E9E0FFBF010280030212D290C7E8E013
:20125B00FE530603BE027090C7EAE0FDA3E0FE4D706590C7ECE0FDA3E0FEBD810ABE00077A
:20127B0090C7B6E4F08048BD820ABE000790C7B8E4F0803BBD830ABE000790C7BAE4F0808A
:20129B002EBD010ABE000790C7C6E4F08021BD020ABE000790C7C8E4F08014BD030ABE0049
:2012BB000790C7CAE4F0800790C7B47401F02290C7B4E04402F022BF0302800302135B9074
:2012DB00C7E8E0FF530703BF027690C7EAE0FEA3E0FF4E706B90C7ECE0FEA3E0FFBE810B1A
:2012FB00BF000890C7B67401F0804DBE820BBF000890C7B87401F0803FBE830BBF000890E5
:20131B00C7BA7401F08031BE010BBF000890C7C67401F08023BE020BBF000890C7C874013F
:20133B00F08015BE030BBF000890C7CA7401F0800790C7B47401F02290C7B4E04402F02298
:20135B0090C7B47401F022D2042290C7B47401F022908075E0FDA3E0FEA3E0FF908078E089
:20137B00FCFA7B00908085EDF0EEA3F0EFA3F0908088EAF0EBA3F090C70075F000C00412EA
:20139B001538D00490C7B5ECF02290C7007416F090C7017403F07E007F008E05ED2D25E0C8
:2013BB00FD24022400FBE434C7FCEE2480F9EF3480FA89828A83E0C4540FF8740F58901536
:2013DB00FC93F88B828C83F074032D2400F582E434C7F583E4F074042D2400FBE434C7FC56
:2013FB0089828A83E0F9740F599015FC93FA8B828C83F074052D2400F582E434C7F583E44F
:20141B00F00EBE00010FC3EE9405EF6480948050030213B590C7B57416F022100402800257
:16143B00D322C32290C7E82290C7B47402F02290C7B47401F0223B
:1015FC00303132333435363738394142434445463D
:03169E0000FFFF4B
:20160C00120100020000004015197777539901021D01090220000101008032090400000252
:20162C00FFFF00000705810240000607050102400006000000000000000000000000000076
:20164C0000000000000000000000000403090412034200690074006300720061007A006521
:20166C00002C034300720061007A00790072006100640069006F00200055005300420020ED
:0D168C000044006F006E0067006C006500F8
:20145100E58290807CF0E0FF908079F090807BE0FE90807AF08FF005F07401800225E0D518
:20147100F0FBFF8EF005F07401800225E0D5F0FB4207EFF4FF5294EF528022E58290807D5A
:20149100F0E0FF30E030300517908079E0FE8EF005F07401800225E0D5F0FBFE42808016F4
:2014B100908079E0FE8EF005F07401800225E0D5F0FBF4FE5280EF30E12E30051590807ABF
:2014D100E0FF8FF005F07401800225E0D5F0FB42802290807AE0FF8FF005F074018002250F
:0914F100E0D5F0FBF4FF5280226B
:2014FA0043F8087E007F00EE2480FCEF3480FD908096E0FAA3E0FBEE2AF582EF3BF583E055
:1E151A00FB8C828D83F00EBE00010FC3EE9405EF6480948040D1AFF874F75FF5F8220C
:0216A1000B003C
:06009800E478FFF6D8FD3C
:20153800AFF0AE83E58290808AF0EEA3F0EFA3F090808AE0F518A3E0F519A3E0F51AAA1863
:20155800AB19AC1A908085E0F8A3E0F9A3E0FF908088E0F51BA3E0F51CAD1BAE1C151B742C
:20157800FFB51B02151CED4E6020888289838FF01215C7FEA3A882A9838A828B838CF0EE98
:141598001215ACA3AA82AB8380CF851882851983851AF0222F
:20007600790AE94400601B7A01901699788E75A080E493F2A308B8000205A0D9F4DAF27569
:02009600A0FFC9
:1B15AC0020F71130F6138883A88220F509F6A8837583002280FEF280F5F0223E
:20009E007800E84400600A790075A080E4F309D8FC788EE84400600C7901908000E4F0A3D3
:0400BE00D8FCD9FA97
:0D0069007581211215E3E582600302006637
:1C15C70020F71430F6148883A88220F507E6A88375830022E280F7E49322E02233
:0415E30075820022EB
:00000001FF
